{
  "_format": "hh-sol-artifact-1",
  "contractName": "EthSwap",
  "sourceName": "contracts/EthSwap.sol",
  "abi": [
    {
      "inputs": [
        {
          "internalType": "contract Token",
          "name": "_token",
          "type": "address"
        }
      ],
      "stateMutability": "nonpayable",
      "type": "constructor"
    },
    {
      "anonymous": false,
      "inputs": [
        {
          "indexed": false,
          "internalType": "address",
          "name": "account",
          "type": "address"
        },
        {
          "indexed": false,
          "internalType": "address",
          "name": "token",
          "type": "address"
        },
        {
          "indexed": false,
          "internalType": "uint256",
          "name": "amount",
          "type": "uint256"
        },
        {
          "indexed": false,
          "internalType": "uint256",
          "name": "rate",
          "type": "uint256"
        }
      ],
      "name": "TokensPurchased",
      "type": "event"
    },
    {
      "anonymous": false,
      "inputs": [
        {
          "indexed": false,
          "internalType": "address",
          "name": "account",
          "type": "address"
        },
        {
          "indexed": false,
          "internalType": "address",
          "name": "token",
          "type": "address"
        },
        {
          "indexed": false,
          "internalType": "uint256",
          "name": "amount",
          "type": "uint256"
        },
        {
          "indexed": false,
          "internalType": "uint256",
          "name": "rate",
          "type": "uint256"
        }
      ],
      "name": "TokensSold",
      "type": "event"
    },
    {
      "inputs": [],
      "name": "buyTokens",
      "outputs": [],
      "stateMutability": "payable",
      "type": "function"
    },
    {
      "inputs": [],
      "name": "name",
      "outputs": [
        {
          "internalType": "string",
          "name": "",
          "type": "string"
        }
      ],
      "stateMutability": "view",
      "type": "function"
    },
    {
      "inputs": [],
      "name": "owner",
      "outputs": [
        {
          "internalType": "address",
          "name": "",
          "type": "address"
        }
      ],
      "stateMutability": "view",
      "type": "function"
    },
    {
      "inputs": [],
      "name": "rate",
      "outputs": [
        {
          "internalType": "uint256",
          "name": "",
          "type": "uint256"
        }
      ],
      "stateMutability": "view",
      "type": "function"
    },
    {
      "inputs": [
        {
          "internalType": "uint256",
          "name": "_amount",
          "type": "uint256"
        }
      ],
      "name": "sellTokens",
      "outputs": [],
      "stateMutability": "nonpayable",
      "type": "function"
    },
    {
      "inputs": [],
      "name": "token",
      "outputs": [
        {
          "internalType": "contract Token",
          "name": "",
          "type": "address"
        }
      ],
      "stateMutability": "view",
      "type": "function"
    }
  ],
  "bytecode": "0x60806040526040518060400160405280601881526020017f4574685377617020496e7374616e742045786368616e67650000000000000000815250600090805190602001906200005192919062000113565b5060646002553480156200006457600080fd5b5060405162000f2338038062000f2383398181016040528101906200008a9190620001da565b80600160006101000a81548173ffffffffffffffffffffffffffffffffffffffff021916908373ffffffffffffffffffffffffffffffffffffffff16021790555033600360006101000a81548173ffffffffffffffffffffffffffffffffffffffff021916908373ffffffffffffffffffffffffffffffffffffffff16021790555050620002cd565b82805462000121906200024e565b90600052602060002090601f01602090048101928262000145576000855562000191565b82601f106200016057805160ff191683800117855562000191565b8280016001018555821562000191579182015b828111156200019057825182559160200191906001019062000173565b5b509050620001a09190620001a4565b5090565b5b80821115620001bf576000816000905550600101620001a5565b5090565b600081519050620001d481620002b3565b92915050565b600060208284031215620001ed57600080fd5b6000620001fd84828501620001c3565b91505092915050565b600062000213826200022e565b9050919050565b6000620002278262000206565b9050919050565b600073ffffffffffffffffffffffffffffffffffffffff82169050919050565b600060028204905060018216806200026757607f821691505b602082108114156200027e576200027d62000284565b5b50919050565b7f4e487b7100000000000000000000000000000000000000000000000000000000600052602260045260246000fd5b620002be816200021a565b8114620002ca57600080fd5b50565b610c4680620002dd6000396000f3fe6080604052600436106100555760003560e01c806306fdde031461005a5780632c4e722e146100855780636c11bcd3146100b05780638da5cb5b146100d9578063d0febe4c14610104578063fc0c546a1461010e575b600080fd5b34801561006657600080fd5b5061006f610139565b60405161007c91906108d7565b60405180910390f35b34801561009157600080fd5b5061009a6101c7565b6040516100a79190610939565b60405180910390f35b3480156100bc57600080fd5b506100d760048036038101906100d291906106fe565b6101cd565b005b3480156100e557600080fd5b506100ee610437565b6040516100fb91906107fc565b60405180910390f35b61010c61045d565b005b34801561011a57600080fd5b50610123610670565b60405161013091906108bc565b60405180910390f35b6000805461014690610a9a565b80601f016020809104026020016040519081016040528092919081815260200182805461017290610a9a565b80156101bf5780601f10610194576101008083540402835291602001916101bf565b820191906000526020600020905b8154815290600101906020018083116101a257829003601f168201915b505050505081565b60025481565b80600160009054906101000a900473ffffffffffffffffffffffffffffffffffffffff1673ffffffffffffffffffffffffffffffffffffffff166370a08231336040518263ffffffff1660e01b815260040161022991906107fc565b60206040518083038186803b15801561024157600080fd5b505afa158015610255573d6000803e3d6000fd5b505050506040513d601f19601f820116820180604052508101906102799190610727565b10156102ba576040517f08c379a00000000000000000000000000000000000000000000000000000000081526004016102b190610919565b60405180910390fd5b6000600254826102ca9190610970565b9050804710156102d957600080fd5b600160009054906101000a900473ffffffffffffffffffffffffffffffffffffffff1673ffffffffffffffffffffffffffffffffffffffff166323b872dd3330856040518463ffffffff1660e01b815260040161033893929190610817565b602060405180830381600087803b15801561035257600080fd5b505af1158015610366573d6000803e3d6000fd5b505050506040513d601f19601f8201168201806040525081019061038a91906106d5565b503373ffffffffffffffffffffffffffffffffffffffff166108fc829081150290604051600060405180830381858888f193505050501580156103d1573d6000803e3d6000fd5b507f697c42d55a5e1fed3f464ec6f38b32546a0bd368dc8068b065c67566d73f329033600160009054906101000a900473ffffffffffffffffffffffffffffffffffffffff168360025460405161042b949392919061084e565b60405180910390a15050565b600360009054906101000a900473ffffffffffffffffffffffffffffffffffffffff1681565b60006002543461046d91906109a1565b905080600160009054906101000a900473ffffffffffffffffffffffffffffffffffffffff1673ffffffffffffffffffffffffffffffffffffffff166370a08231306040518263ffffffff1660e01b81526004016104cb91906107fc565b60206040518083038186803b1580156104e357600080fd5b505afa1580156104f7573d6000803e3d6000fd5b505050506040513d601f19601f8201168201806040525081019061051b9190610727565b101561055c576040517f08c379a0000000000000000000000000000000000000000000000000000000008152600401610553906108f9565b60405180910390fd5b600160009054906101000a900473ffffffffffffffffffffffffffffffffffffffff1673ffffffffffffffffffffffffffffffffffffffff1663a9059cbb33836040518363ffffffff1660e01b81526004016105b9929190610893565b602060405180830381600087803b1580156105d357600080fd5b505af11580156105e7573d6000803e3d6000fd5b505050506040513d601f19601f8201168201806040525081019061060b91906106d5565b507f6faf93231a456e552dbc9961f58d9713ee4f2e69d15f1975b050ef0911053a7b33600160009054906101000a900473ffffffffffffffffffffffffffffffffffffffff1683600254604051610665949392919061084e565b60405180910390a150565b600160009054906101000a900473ffffffffffffffffffffffffffffffffffffffff1681565b6000815190506106a581610be2565b92915050565b6000813590506106ba81610bf9565b92915050565b6000815190506106cf81610bf9565b92915050565b6000602082840312156106e757600080fd5b60006106f584828501610696565b91505092915050565b60006020828403121561071057600080fd5b600061071e848285016106ab565b91505092915050565b60006020828403121561073957600080fd5b6000610747848285016106c0565b91505092915050565b610759816109fb565b82525050565b61076881610a43565b82525050565b600061077982610954565b610783818561095f565b9350610793818560208601610a67565b61079c81610b59565b840191505092915050565b60006107b4602a8361095f565b91506107bf82610b6a565b604082019050919050565b60006107d760118361095f565b91506107e282610bb9565b602082019050919050565b6107f681610a39565b82525050565b60006020820190506108116000830184610750565b92915050565b600060608201905061082c6000830186610750565b6108396020830185610750565b61084660408301846107ed565b949350505050565b60006080820190506108636000830187610750565b6108706020830186610750565b61087d60408301856107ed565b61088a60608301846107ed565b95945050505050565b60006040820190506108a86000830185610750565b6108b560208301846107ed565b9392505050565b60006020820190506108d1600083018461075f565b92915050565b600060208201905081810360008301526108f1818461076e565b905092915050565b60006020820190508181036000830152610912816107a7565b9050919050565b60006020820190508181036000830152610932816107ca565b9050919050565b600060208201905061094e60008301846107ed565b92915050565b600081519050919050565b600082825260208201905092915050565b600061097b82610a39565b915061098683610a39565b92508261099657610995610afb565b5b828204905092915050565b60006109ac82610a39565b91506109b783610a39565b9250817fffffffffffffffffffffffffffffffffffffffffffffffffffffffffffffffff04831182151516156109f0576109ef610acc565b5b828202905092915050565b6000610a0682610a19565b9050919050565b60008115159050919050565b600073ffffffffffffffffffffffffffffffffffffffff82169050919050565b6000819050919050565b6000610a4e82610a55565b9050919050565b6000610a6082610a19565b9050919050565b60005b83811015610a85578082015181840152602081019050610a6a565b83811115610a94576000848401525b50505050565b60006002820490506001821680610ab257607f821691505b60208210811415610ac657610ac5610b2a565b5b50919050565b7f4e487b7100000000000000000000000000000000000000000000000000000000600052601160045260246000fd5b7f4e487b7100000000000000000000000000000000000000000000000000000000600052601260045260246000fd5b7f4e487b7100000000000000000000000000000000000000000000000000000000600052602260045260246000fd5b6000601f19601f8301169050919050565b7f536f7272792c2074686520706f6f6c20646f65736e2774206861766520656e6f60008201527f75676820746f6b656e7300000000000000000000000000000000000000000000602082015250565b7f4e6f7420456e6f75676820546f6b656e73000000000000000000000000000000600082015250565b610beb81610a0d565b8114610bf657600080fd5b50565b610c0281610a39565b8114610c0d57600080fd5b5056fea26469706673582212204210e8d5ecdd4ce9de7f20450725227e104dfce6db51b2e0295f1e891e94ceb264736f6c63430008040033",
  "linkReferences": {},
  "deployedLinkReferences": {}
}